{
	"contracts/MyContract.sol": {
		"AnimeSumContract": {
			"abi": [
				{
					"inputs": [
						{
							"internalType": "int256",
							"name": "num_1",
							"type": "int256"
						},
						{
							"internalType": "int256",
							"name": "num_2",
							"type": "int256"
						}
					],
					"name": "add",
					"outputs": [],
					"stateMutability": "nonpayable",
					"type": "function"
				},
				{
					"inputs": [],
					"name": "getSum",
					"outputs": [
						{
							"internalType": "int256",
							"name": "",
							"type": "int256"
						}
					],
					"stateMutability": "view",
					"type": "function"
				}
			],
			"devdoc": {
				"kind": "dev",
				"methods": {},
				"version": 1
			},
			"evm": {
				"assembly": "    /* \"contracts/MyContract.sol\":60:323  contract AnimeSumContract {... */\n  mstore(0x40, 0x80)\n  callvalue\n  dup1\n  iszero\n  tag_1\n  jumpi\n  0x00\n  dup1\n  revert\ntag_1:\n  pop\n  dataSize(sub_0)\n  dup1\n  dataOffset(sub_0)\n  0x00\n  codecopy\n  0x00\n  return\nstop\n\nsub_0: assembly {\n        /* \"contracts/MyContract.sol\":60:323  contract AnimeSumContract {... */\n      mstore(0x40, 0x80)\n      callvalue\n      dup1\n      iszero\n      tag_1\n      jumpi\n      0x00\n      dup1\n      revert\n    tag_1:\n      pop\n      jumpi(tag_2, lt(calldatasize, 0x04))\n      shr(0xe0, calldataload(0x00))\n      dup1\n      0x569c5f6d\n      eq\n      tag_3\n      jumpi\n      dup1\n      0xa5f3c23b\n      eq\n      tag_4\n      jumpi\n    tag_2:\n      0x00\n      dup1\n      revert\n        /* \"contracts/MyContract.sol\":249:320  function getSum() public view returns (int) {... */\n    tag_3:\n      tag_5\n      tag_6\n      jump\t// in\n    tag_5:\n      mload(0x40)\n      tag_7\n      swap2\n      swap1\n      tag_8\n      jump\t// in\n    tag_7:\n      mload(0x40)\n      dup1\n      swap2\n      sub\n      swap1\n      return\n        /* \"contracts/MyContract.sol\":131:241  function add(int num_1, int num_2) public {... */\n    tag_4:\n      tag_9\n      0x04\n      dup1\n      calldatasize\n      sub\n      dup2\n      add\n      swap1\n      tag_10\n      swap2\n      swap1\n      tag_11\n      jump\t// in\n    tag_10:\n      tag_12\n      jump\t// in\n    tag_9:\n      stop\n        /* \"contracts/MyContract.sol\":249:320  function getSum() public view returns (int) {... */\n    tag_6:\n        /* \"contracts/MyContract.sol\":288:291  int */\n      0x00\n        /* \"contracts/MyContract.sol\":311:312  c */\n      sload(0x02)\n        /* \"contracts/MyContract.sol\":304:312  return c */\n      swap1\n      pop\n        /* \"contracts/MyContract.sol\":249:320  function getSum() public view returns (int) {... */\n      swap1\n      jump\t// out\n        /* \"contracts/MyContract.sol\":131:241  function add(int num_1, int num_2) public {... */\n    tag_12:\n        /* \"contracts/MyContract.sol\":188:193  num_1 */\n      dup2\n        /* \"contracts/MyContract.sol\":184:185  a */\n      0x00\n        /* \"contracts/MyContract.sol\":184:193  a = num_1 */\n      dup2\n      swap1\n      sstore\n      pop\n        /* \"contracts/MyContract.sol\":208:213  num_2 */\n      dup1\n        /* \"contracts/MyContract.sol\":204:205  b */\n      0x01\n        /* \"contracts/MyContract.sol\":204:213  b = num_2 */\n      dup2\n      swap1\n      sstore\n      pop\n        /* \"contracts/MyContract.sol\":232:233  b */\n      sload(0x01)\n        /* \"contracts/MyContract.sol\":228:229  a */\n      sload(0x00)\n        /* \"contracts/MyContract.sol\":228:233  a + b */\n      tag_15\n      swap2\n      swap1\n      tag_16\n      jump\t// in\n    tag_15:\n        /* \"contracts/MyContract.sol\":224:225  c */\n      0x02\n        /* \"contracts/MyContract.sol\":224:233  c = a + b */\n      dup2\n      swap1\n      sstore\n      pop\n        /* \"contracts/MyContract.sol\":131:241  function add(int num_1, int num_2) public {... */\n      pop\n      pop\n      jump\t// out\n        /* \"#utility.yul\":7:83   */\n    tag_17:\n        /* \"#utility.yul\":43:50   */\n      0x00\n        /* \"#utility.yul\":72:77   */\n      dup2\n        /* \"#utility.yul\":61:77   */\n      swap1\n      pop\n        /* \"#utility.yul\":7:83   */\n      swap2\n      swap1\n      pop\n      jump\t// out\n        /* \"#utility.yul\":89:204   */\n    tag_18:\n        /* \"#utility.yul\":174:197   */\n      tag_28\n        /* \"#utility.yul\":191:196   */\n      dup2\n        /* \"#utility.yul\":174:197   */\n      tag_17\n      jump\t// in\n    tag_28:\n        /* \"#utility.yul\":169:172   */\n      dup3\n        /* \"#utility.yul\":162:198   */\n      mstore\n        /* \"#utility.yul\":89:204   */\n      pop\n      pop\n      jump\t// out\n        /* \"#utility.yul\":210:428   */\n    tag_8:\n        /* \"#utility.yul\":301:305   */\n      0x00\n        /* \"#utility.yul\":339:341   */\n      0x20\n        /* \"#utility.yul\":328:337   */\n      dup3\n        /* \"#utility.yul\":324:342   */\n      add\n        /* \"#utility.yul\":316:342   */\n      swap1\n      pop\n        /* \"#utility.yul\":352:421   */\n      tag_30\n        /* \"#utility.yul\":418:419   */\n      0x00\n        /* \"#utility.yul\":407:416   */\n      dup4\n        /* \"#utility.yul\":403:420   */\n      add\n        /* \"#utility.yul\":394:400   */\n      dup5\n        /* \"#utility.yul\":352:421   */\n      tag_18\n      jump\t// in\n    tag_30:\n        /* \"#utility.yul\":210:428   */\n      swap3\n      swap2\n      pop\n      pop\n      jump\t// out\n        /* \"#utility.yul\":515:632   */\n    tag_20:\n        /* \"#utility.yul\":624:625   */\n      0x00\n        /* \"#utility.yul\":621:622   */\n      dup1\n        /* \"#utility.yul\":614:626   */\n      revert\n        /* \"#utility.yul\":761:881   */\n    tag_22:\n        /* \"#utility.yul\":833:856   */\n      tag_35\n        /* \"#utility.yul\":850:855   */\n      dup2\n        /* \"#utility.yul\":833:856   */\n      tag_17\n      jump\t// in\n    tag_35:\n        /* \"#utility.yul\":826:831   */\n      dup2\n        /* \"#utility.yul\":823:857   */\n      eq\n        /* \"#utility.yul\":813:875   */\n      tag_36\n      jumpi\n        /* \"#utility.yul\":871:872   */\n      0x00\n        /* \"#utility.yul\":868:869   */\n      dup1\n        /* \"#utility.yul\":861:873   */\n      revert\n        /* \"#utility.yul\":813:875   */\n    tag_36:\n        /* \"#utility.yul\":761:881   */\n      pop\n      jump\t// out\n        /* \"#utility.yul\":887:1024   */\n    tag_23:\n        /* \"#utility.yul\":932:937   */\n      0x00\n        /* \"#utility.yul\":970:976   */\n      dup2\n        /* \"#utility.yul\":957:977   */\n      calldataload\n        /* \"#utility.yul\":948:977   */\n      swap1\n      pop\n        /* \"#utility.yul\":986:1018   */\n      tag_38\n        /* \"#utility.yul\":1012:1017   */\n      dup2\n        /* \"#utility.yul\":986:1018   */\n      tag_22\n      jump\t// in\n    tag_38:\n        /* \"#utility.yul\":887:1024   */\n      swap3\n      swap2\n      pop\n      pop\n      jump\t// out\n        /* \"#utility.yul\":1030:1500   */\n    tag_11:\n        /* \"#utility.yul\":1096:1102   */\n      0x00\n        /* \"#utility.yul\":1104:1110   */\n      dup1\n        /* \"#utility.yul\":1153:1155   */\n      0x40\n        /* \"#utility.yul\":1141:1150   */\n      dup4\n        /* \"#utility.yul\":1132:1139   */\n      dup6\n        /* \"#utility.yul\":1128:1151   */\n      sub\n        /* \"#utility.yul\":1124:1156   */\n      slt\n        /* \"#utility.yul\":1121:1240   */\n      iszero\n      tag_40\n      jumpi\n        /* \"#utility.yul\":1159:1238   */\n      tag_41\n      tag_20\n      jump\t// in\n    tag_41:\n        /* \"#utility.yul\":1121:1240   */\n    tag_40:\n        /* \"#utility.yul\":1279:1280   */\n      0x00\n        /* \"#utility.yul\":1304:1356   */\n      tag_42\n        /* \"#utility.yul\":1348:1355   */\n      dup6\n        /* \"#utility.yul\":1339:1345   */\n      dup3\n        /* \"#utility.yul\":1328:1337   */\n      dup7\n        /* \"#utility.yul\":1324:1346   */\n      add\n        /* \"#utility.yul\":1304:1356   */\n      tag_23\n      jump\t// in\n    tag_42:\n        /* \"#utility.yul\":1294:1356   */\n      swap3\n      pop\n        /* \"#utility.yul\":1250:1366   */\n      pop\n        /* \"#utility.yul\":1405:1407   */\n      0x20\n        /* \"#utility.yul\":1431:1483   */\n      tag_43\n        /* \"#utility.yul\":1475:1482   */\n      dup6\n        /* \"#utility.yul\":1466:1472   */\n      dup3\n        /* \"#utility.yul\":1455:1464   */\n      dup7\n        /* \"#utility.yul\":1451:1473   */\n      add\n        /* \"#utility.yul\":1431:1483   */\n      tag_23\n      jump\t// in\n    tag_43:\n        /* \"#utility.yul\":1421:1483   */\n      swap2\n      pop\n        /* \"#utility.yul\":1376:1493   */\n      pop\n        /* \"#utility.yul\":1030:1500   */\n      swap3\n      pop\n      swap3\n      swap1\n      pop\n      jump\t// out\n        /* \"#utility.yul\":1506:1686   */\n    tag_24:\n        /* \"#utility.yul\":1554:1631   */\n      0x4e487b7100000000000000000000000000000000000000000000000000000000\n        /* \"#utility.yul\":1551:1552   */\n      0x00\n        /* \"#utility.yul\":1544:1632   */\n      mstore\n        /* \"#utility.yul\":1651:1655   */\n      0x11\n        /* \"#utility.yul\":1648:1649   */\n      0x04\n        /* \"#utility.yul\":1641:1656   */\n      mstore\n        /* \"#utility.yul\":1675:1679   */\n      0x24\n        /* \"#utility.yul\":1672:1673   */\n      0x00\n        /* \"#utility.yul\":1665:1680   */\n      revert\n        /* \"#utility.yul\":1692:2067   */\n    tag_16:\n        /* \"#utility.yul\":1731:1734   */\n      0x00\n        /* \"#utility.yul\":1750:1769   */\n      tag_46\n        /* \"#utility.yul\":1767:1768   */\n      dup3\n        /* \"#utility.yul\":1750:1769   */\n      tag_17\n      jump\t// in\n    tag_46:\n        /* \"#utility.yul\":1745:1769   */\n      swap2\n      pop\n        /* \"#utility.yul\":1783:1802   */\n      tag_47\n        /* \"#utility.yul\":1800:1801   */\n      dup4\n        /* \"#utility.yul\":1783:1802   */\n      tag_17\n      jump\t// in\n    tag_47:\n        /* \"#utility.yul\":1778:1802   */\n      swap3\n      pop\n        /* \"#utility.yul\":1825:1826   */\n      dup3\n        /* \"#utility.yul\":1822:1823   */\n      dup3\n        /* \"#utility.yul\":1818:1827   */\n      add\n        /* \"#utility.yul\":1811:1827   */\n      swap1\n      pop\n        /* \"#utility.yul\":2023:2024   */\n      dup3\n        /* \"#utility.yul\":2018:2021   */\n      dup2\n        /* \"#utility.yul\":2014:2025   */\n      slt\n        /* \"#utility.yul\":2007:2026   */\n      iszero\n        /* \"#utility.yul\":2003:2004   */\n      0x00\n        /* \"#utility.yul\":2000:2001   */\n      dup4\n        /* \"#utility.yul\":1996:2005   */\n      slt\n        /* \"#utility.yul\":1992:2027   */\n      and\n        /* \"#utility.yul\":1975:1976   */\n      dup4\n        /* \"#utility.yul\":1970:1973   */\n      dup3\n        /* \"#utility.yul\":1966:1977   */\n      slt\n        /* \"#utility.yul\":1961:1962   */\n      0x00\n        /* \"#utility.yul\":1958:1959   */\n      dup5\n        /* \"#utility.yul\":1954:1963   */\n      slt\n        /* \"#utility.yul\":1947:1964   */\n      iszero\n        /* \"#utility.yul\":1943:1978   */\n      and\n        /* \"#utility.yul\":1927:2037   */\n      or\n        /* \"#utility.yul\":1924:2060   */\n      iszero\n      tag_48\n      jumpi\n        /* \"#utility.yul\":2040:2058   */\n      tag_49\n      tag_24\n      jump\t// in\n    tag_49:\n        /* \"#utility.yul\":1924:2060   */\n    tag_48:\n        /* \"#utility.yul\":1692:2067   */\n      swap3\n      swap2\n      pop\n      pop\n      jump\t// out\n\n    auxdata: 0xa264697066735822122024be05030e5c8e549090e45f2e896faaa4cbc76f3fc263faa05276afefc586fa64736f6c63430008110033\n}\n",
				"bytecode": {
					"linkReferences": {},
					"object": "608060405234801561001057600080fd5b506101f5806100206000396000f3fe608060405234801561001057600080fd5b50600436106100365760003560e01c8063569c5f6d1461003b578063a5f3c23b14610059575b600080fd5b610043610075565b60405161005091906100c0565b60405180910390f35b610073600480360381019061006e919061010c565b61007f565b005b6000600254905090565b816000819055508060018190555060015460005461009d919061017b565b6002819055505050565b6000819050919050565b6100ba816100a7565b82525050565b60006020820190506100d560008301846100b1565b92915050565b600080fd5b6100e9816100a7565b81146100f457600080fd5b50565b600081359050610106816100e0565b92915050565b60008060408385031215610123576101226100db565b5b6000610131858286016100f7565b9250506020610142858286016100f7565b9150509250929050565b7f4e487b7100000000000000000000000000000000000000000000000000000000600052601160045260246000fd5b6000610186826100a7565b9150610191836100a7565b9250828201905082811215600083121683821260008412151617156101b9576101b861014c565b5b9291505056fea264697066735822122024be05030e5c8e549090e45f2e896faaa4cbc76f3fc263faa05276afefc586fa64736f6c63430008110033",
					"opcodes": "PUSH1 0x80 PUSH1 0x40 MSTORE CALLVALUE DUP1 ISZERO PUSH2 0x10 JUMPI PUSH1 0x0 DUP1 REVERT JUMPDEST POP PUSH2 0x1F5 DUP1 PUSH2 0x20 PUSH1 0x0 CODECOPY PUSH1 0x0 RETURN INVALID PUSH1 0x80 PUSH1 0x40 MSTORE CALLVALUE DUP1 ISZERO PUSH2 0x10 JUMPI PUSH1 0x0 DUP1 REVERT JUMPDEST POP PUSH1 0x4 CALLDATASIZE LT PUSH2 0x36 JUMPI PUSH1 0x0 CALLDATALOAD PUSH1 0xE0 SHR DUP1 PUSH4 0x569C5F6D EQ PUSH2 0x3B JUMPI DUP1 PUSH4 0xA5F3C23B EQ PUSH2 0x59 JUMPI JUMPDEST PUSH1 0x0 DUP1 REVERT JUMPDEST PUSH2 0x43 PUSH2 0x75 JUMP JUMPDEST PUSH1 0x40 MLOAD PUSH2 0x50 SWAP2 SWAP1 PUSH2 0xC0 JUMP JUMPDEST PUSH1 0x40 MLOAD DUP1 SWAP2 SUB SWAP1 RETURN JUMPDEST PUSH2 0x73 PUSH1 0x4 DUP1 CALLDATASIZE SUB DUP2 ADD SWAP1 PUSH2 0x6E SWAP2 SWAP1 PUSH2 0x10C JUMP JUMPDEST PUSH2 0x7F JUMP JUMPDEST STOP JUMPDEST PUSH1 0x0 PUSH1 0x2 SLOAD SWAP1 POP SWAP1 JUMP JUMPDEST DUP2 PUSH1 0x0 DUP2 SWAP1 SSTORE POP DUP1 PUSH1 0x1 DUP2 SWAP1 SSTORE POP PUSH1 0x1 SLOAD PUSH1 0x0 SLOAD PUSH2 0x9D SWAP2 SWAP1 PUSH2 0x17B JUMP JUMPDEST PUSH1 0x2 DUP2 SWAP1 SSTORE POP POP POP JUMP JUMPDEST PUSH1 0x0 DUP2 SWAP1 POP SWAP2 SWAP1 POP JUMP JUMPDEST PUSH2 0xBA DUP2 PUSH2 0xA7 JUMP JUMPDEST DUP3 MSTORE POP POP JUMP JUMPDEST PUSH1 0x0 PUSH1 0x20 DUP3 ADD SWAP1 POP PUSH2 0xD5 PUSH1 0x0 DUP4 ADD DUP5 PUSH2 0xB1 JUMP JUMPDEST SWAP3 SWAP2 POP POP JUMP JUMPDEST PUSH1 0x0 DUP1 REVERT JUMPDEST PUSH2 0xE9 DUP2 PUSH2 0xA7 JUMP JUMPDEST DUP2 EQ PUSH2 0xF4 JUMPI PUSH1 0x0 DUP1 REVERT JUMPDEST POP JUMP JUMPDEST PUSH1 0x0 DUP2 CALLDATALOAD SWAP1 POP PUSH2 0x106 DUP2 PUSH2 0xE0 JUMP JUMPDEST SWAP3 SWAP2 POP POP JUMP JUMPDEST PUSH1 0x0 DUP1 PUSH1 0x40 DUP4 DUP6 SUB SLT ISZERO PUSH2 0x123 JUMPI PUSH2 0x122 PUSH2 0xDB JUMP JUMPDEST JUMPDEST PUSH1 0x0 PUSH2 0x131 DUP6 DUP3 DUP7 ADD PUSH2 0xF7 JUMP JUMPDEST SWAP3 POP POP PUSH1 0x20 PUSH2 0x142 DUP6 DUP3 DUP7 ADD PUSH2 0xF7 JUMP JUMPDEST SWAP2 POP POP SWAP3 POP SWAP3 SWAP1 POP JUMP JUMPDEST PUSH32 0x4E487B7100000000000000000000000000000000000000000000000000000000 PUSH1 0x0 MSTORE PUSH1 0x11 PUSH1 0x4 MSTORE PUSH1 0x24 PUSH1 0x0 REVERT JUMPDEST PUSH1 0x0 PUSH2 0x186 DUP3 PUSH2 0xA7 JUMP JUMPDEST SWAP2 POP PUSH2 0x191 DUP4 PUSH2 0xA7 JUMP JUMPDEST SWAP3 POP DUP3 DUP3 ADD SWAP1 POP DUP3 DUP2 SLT ISZERO PUSH1 0x0 DUP4 SLT AND DUP4 DUP3 SLT PUSH1 0x0 DUP5 SLT ISZERO AND OR ISZERO PUSH2 0x1B9 JUMPI PUSH2 0x1B8 PUSH2 0x14C JUMP JUMPDEST JUMPDEST SWAP3 SWAP2 POP POP JUMP INVALID LOG2 PUSH5 0x6970667358 0x22 SLT KECCAK256 0x24 0xBE SDIV SUB 0xE 0x5C DUP15 SLOAD SWAP1 SWAP1 0xE4 0x5F 0x2E DUP10 PUSH16 0xAAA4CBC76F3FC263FAA05276AFEFC586 STATICCALL PUSH5 0x736F6C6343 STOP ADDMOD GT STOP CALLER "
				},
				"gasEstimates": {
					"creation": {
						"codeDepositCost": "100200",
						"executionCost": "147",
						"totalCost": "100347"
					},
					"external": {
						"add(int256,int256)": "infinite",
						"getSum()": "2415"
					}
				},
				"methodIdentifiers": {
					"add(int256,int256)": "a5f3c23b",
					"getSum()": "569c5f6d"
				}
			},
			"storageLayout": {
				"storage": [
					{
						"astId": 3,
						"contract": "contracts/MyContract.sol:AnimeSumContract",
						"label": "a",
						"offset": 0,
						"slot": "0",
						"type": "t_int256"
					},
					{
						"astId": 5,
						"contract": "contracts/MyContract.sol:AnimeSumContract",
						"label": "b",
						"offset": 0,
						"slot": "1",
						"type": "t_int256"
					},
					{
						"astId": 7,
						"contract": "contracts/MyContract.sol:AnimeSumContract",
						"label": "c",
						"offset": 0,
						"slot": "2",
						"type": "t_int256"
					}
				],
				"types": {
					"t_int256": {
						"encoding": "inplace",
						"label": "int256",
						"numberOfBytes": "32"
					}
				}
			},
			"userdoc": {
				"kind": "user",
				"methods": {},
				"version": 1
			}
		}
	}
}