{
	"contracts/ProxyContract.sol": {
		"ProxyContract": {
			"abi": [
				{
					"inputs": [],
					"name": "firstPlayer",
					"outputs": [
						{
							"internalType": "address",
							"name": "",
							"type": "address"
						}
					],
					"stateMutability": "view",
					"type": "function"
				},
				{
					"inputs": [],
					"name": "judge",
					"outputs": [
						{
							"internalType": "address",
							"name": "",
							"type": "address"
						}
					],
					"stateMutability": "view",
					"type": "function"
				},
				{
					"inputs": [
						{
							"internalType": "address",
							"name": "_contract",
							"type": "address"
						}
					],
					"name": "proxyJoin",
					"outputs": [],
					"stateMutability": "nonpayable",
					"type": "function"
				},
				{
					"inputs": [],
					"name": "secondPlayer",
					"outputs": [
						{
							"internalType": "address",
							"name": "",
							"type": "address"
						}
					],
					"stateMutability": "view",
					"type": "function"
				}
			],
			"devdoc": {
				"kind": "dev",
				"methods": {},
				"version": 1
			},
			"evm": {
				"assembly": "    /* \"contracts/ProxyContract.sol\":62:397  contract ProxyContract {\r... */\n  mstore(0x40, 0x80)\n  callvalue\n  dup1\n  iszero\n  tag_1\n  jumpi\n  0x00\n  dup1\n  revert\ntag_1:\n  pop\n  dataSize(sub_0)\n  dup1\n  dataOffset(sub_0)\n  0x00\n  codecopy\n  0x00\n  return\nstop\n\nsub_0: assembly {\n        /* \"contracts/ProxyContract.sol\":62:397  contract ProxyContract {\r... */\n      mstore(0x40, 0x80)\n      callvalue\n      dup1\n      iszero\n      tag_1\n      jumpi\n      0x00\n      dup1\n      revert\n    tag_1:\n      pop\n      jumpi(tag_2, lt(calldatasize, 0x04))\n      shr(0xe0, calldataload(0x00))\n      dup1\n      0x1bc1e19a\n      eq\n      tag_3\n      jumpi\n      dup1\n      0x54712524\n      eq\n      tag_4\n      jumpi\n      dup1\n      0x573255f4\n      eq\n      tag_5\n      jumpi\n      dup1\n      0xb640681a\n      eq\n      tag_6\n      jumpi\n    tag_2:\n      0x00\n      dup1\n      revert\n        /* \"contracts/ProxyContract.sol\":125:152  address public secondPlayer */\n    tag_3:\n      tag_7\n      tag_8\n      jump\t// in\n    tag_7:\n      mload(0x40)\n      tag_9\n      swap2\n      swap1\n      tag_10\n      jump\t// in\n    tag_9:\n      mload(0x40)\n      dup1\n      swap2\n      sub\n      swap1\n      return\n        /* \"contracts/ProxyContract.sol\":92:118  address public firstPlayer */\n    tag_4:\n      tag_11\n      tag_12\n      jump\t// in\n    tag_11:\n      mload(0x40)\n      tag_13\n      swap2\n      swap1\n      tag_10\n      jump\t// in\n    tag_13:\n      mload(0x40)\n      dup1\n      swap2\n      sub\n      swap1\n      return\n        /* \"contracts/ProxyContract.sol\":159:179  address public judge */\n    tag_5:\n      tag_14\n      tag_15\n      jump\t// in\n    tag_14:\n      mload(0x40)\n      tag_16\n      swap2\n      swap1\n      tag_10\n      jump\t// in\n    tag_16:\n      mload(0x40)\n      dup1\n      swap2\n      sub\n      swap1\n      return\n        /* \"contracts/ProxyContract.sol\":188:388  function proxyJoin(address _contract) public {\r... */\n    tag_6:\n      tag_17\n      0x04\n      dup1\n      calldatasize\n      sub\n      dup2\n      add\n      swap1\n      tag_18\n      swap2\n      swap1\n      tag_19\n      jump\t// in\n    tag_18:\n      tag_20\n      jump\t// in\n    tag_17:\n      stop\n        /* \"contracts/ProxyContract.sol\":125:152  address public secondPlayer */\n    tag_8:\n      0x01\n      0x00\n      swap1\n      sload\n      swap1\n      0x0100\n      exp\n      swap1\n      div\n      0xffffffffffffffffffffffffffffffffffffffff\n      and\n      dup2\n      jump\t// out\n        /* \"contracts/ProxyContract.sol\":92:118  address public firstPlayer */\n    tag_12:\n      0x00\n      dup1\n      sload\n      swap1\n      0x0100\n      exp\n      swap1\n      div\n      0xffffffffffffffffffffffffffffffffffffffff\n      and\n      dup2\n      jump\t// out\n        /* \"contracts/ProxyContract.sol\":159:179  address public judge */\n    tag_15:\n      0x02\n      0x00\n      swap1\n      sload\n      swap1\n      0x0100\n      exp\n      swap1\n      div\n      0xffffffffffffffffffffffffffffffffffffffff\n      and\n      dup2\n      jump\t// out\n        /* \"contracts/ProxyContract.sol\":188:388  function proxyJoin(address _contract) public {\r... */\n    tag_20:\n        /* \"contracts/ProxyContract.sol\":245:257  bool success */\n      0x00\n        /* \"contracts/ProxyContract.sol\":263:272  _contract */\n      dup2\n        /* \"contracts/ProxyContract.sol\":263:285  _contract.delegatecall */\n      0xffffffffffffffffffffffffffffffffffffffff\n      and\n        /* \"contracts/ProxyContract.sol\":300:333  abi.encodeWithSignature(\"join()\") */\n      add(0x24, mload(0x40))\n      mload(0x40)\n      0x20\n      dup2\n      dup4\n      sub\n      sub\n      dup2\n      mstore\n      swap1\n      0x40\n      mstore\n      and(not(0xffffffffffffffffffffffffffffffffffffffffffffffffffffffff), 0xb688a36300000000000000000000000000000000000000000000000000000000)\n      0x20\n      dup3\n      add\n      dup1\n      mload\n      0xffffffffffffffffffffffffffffffffffffffffffffffffffffffff\n      dup4\n      dup2\n      dup4\n      and\n      or\n      dup4\n      mstore\n      pop\n      pop\n      pop\n      pop\n        /* \"contracts/ProxyContract.sol\":263:344  _contract.delegatecall(\r... */\n      mload(0x40)\n      tag_22\n      swap2\n      swap1\n      tag_23\n      jump\t// in\n    tag_22:\n      0x00\n      mload(0x40)\n      dup1\n      dup4\n      sub\n      dup2\n      dup6\n      gas\n      delegatecall\n      swap2\n      pop\n      pop\n      returndatasize\n      dup1\n      0x00\n      dup2\n      eq\n      tag_26\n      jumpi\n      mload(0x40)\n      swap2\n      pop\n      and(add(returndatasize, 0x3f), not(0x1f))\n      dup3\n      add\n      0x40\n      mstore\n      returndatasize\n      dup3\n      mstore\n      returndatasize\n      0x00\n      0x20\n      dup5\n      add\n      returndatacopy\n      jump(tag_25)\n    tag_26:\n      0x60\n      swap2\n      pop\n    tag_25:\n      pop\n        /* \"contracts/ProxyContract.sol\":244:344  (bool success, ) = _contract.delegatecall(\r... */\n      pop\n      swap1\n      pop\n        /* \"contracts/ProxyContract.sol\":363:370  success */\n      dup1\n        /* \"contracts/ProxyContract.sol\":355:380  require(success, \"Error\") */\n      tag_27\n      jumpi\n      mload(0x40)\n      0x08c379a000000000000000000000000000000000000000000000000000000000\n      dup2\n      mstore\n      0x04\n      add\n      tag_28\n      swap1\n      tag_29\n      jump\t// in\n    tag_28:\n      mload(0x40)\n      dup1\n      swap2\n      sub\n      swap1\n      revert\n    tag_27:\n        /* \"contracts/ProxyContract.sol\":233:388  {\r... */\n      pop\n        /* \"contracts/ProxyContract.sol\":188:388  function proxyJoin(address _contract) public {\r... */\n      pop\n      jump\t// out\n        /* \"#utility.yul\":7:146   */\n    tag_31:\n        /* \"#utility.yul\":53:58   */\n      0x00\n        /* \"#utility.yul\":91:97   */\n      dup2\n        /* \"#utility.yul\":78:98   */\n      calldataload\n        /* \"#utility.yul\":69:98   */\n      swap1\n      pop\n        /* \"#utility.yul\":107:140   */\n      tag_33\n        /* \"#utility.yul\":134:139   */\n      dup2\n        /* \"#utility.yul\":107:140   */\n      tag_34\n      jump\t// in\n    tag_33:\n        /* \"#utility.yul\":7:146   */\n      swap3\n      swap2\n      pop\n      pop\n      jump\t// out\n        /* \"#utility.yul\":152:481   */\n    tag_19:\n        /* \"#utility.yul\":211:217   */\n      0x00\n        /* \"#utility.yul\":260:262   */\n      0x20\n        /* \"#utility.yul\":248:257   */\n      dup3\n        /* \"#utility.yul\":239:246   */\n      dup5\n        /* \"#utility.yul\":235:258   */\n      sub\n        /* \"#utility.yul\":231:263   */\n      slt\n        /* \"#utility.yul\":228:347   */\n      iszero\n      tag_36\n      jumpi\n        /* \"#utility.yul\":266:345   */\n      tag_37\n      tag_38\n      jump\t// in\n    tag_37:\n        /* \"#utility.yul\":228:347   */\n    tag_36:\n        /* \"#utility.yul\":386:387   */\n      0x00\n        /* \"#utility.yul\":411:464   */\n      tag_39\n        /* \"#utility.yul\":456:463   */\n      dup5\n        /* \"#utility.yul\":447:453   */\n      dup3\n        /* \"#utility.yul\":436:445   */\n      dup6\n        /* \"#utility.yul\":432:454   */\n      add\n        /* \"#utility.yul\":411:464   */\n      tag_31\n      jump\t// in\n    tag_39:\n        /* \"#utility.yul\":401:464   */\n      swap2\n      pop\n        /* \"#utility.yul\":357:474   */\n      pop\n        /* \"#utility.yul\":152:481   */\n      swap3\n      swap2\n      pop\n      pop\n      jump\t// out\n        /* \"#utility.yul\":487:605   */\n    tag_40:\n        /* \"#utility.yul\":574:598   */\n      tag_42\n        /* \"#utility.yul\":592:597   */\n      dup2\n        /* \"#utility.yul\":574:598   */\n      tag_43\n      jump\t// in\n    tag_42:\n        /* \"#utility.yul\":569:572   */\n      dup3\n        /* \"#utility.yul\":562:599   */\n      mstore\n        /* \"#utility.yul\":487:605   */\n      pop\n      pop\n      jump\t// out\n        /* \"#utility.yul\":611:984   */\n    tag_44:\n        /* \"#utility.yul\":715:718   */\n      0x00\n        /* \"#utility.yul\":743:781   */\n      tag_46\n        /* \"#utility.yul\":775:780   */\n      dup3\n        /* \"#utility.yul\":743:781   */\n      tag_47\n      jump\t// in\n    tag_46:\n        /* \"#utility.yul\":797:885   */\n      tag_48\n        /* \"#utility.yul\":878:884   */\n      dup2\n        /* \"#utility.yul\":873:876   */\n      dup6\n        /* \"#utility.yul\":797:885   */\n      tag_49\n      jump\t// in\n    tag_48:\n        /* \"#utility.yul\":790:885   */\n      swap4\n      pop\n        /* \"#utility.yul\":894:946   */\n      tag_50\n        /* \"#utility.yul\":939:945   */\n      dup2\n        /* \"#utility.yul\":934:937   */\n      dup6\n        /* \"#utility.yul\":927:931   */\n      0x20\n        /* \"#utility.yul\":920:925   */\n      dup7\n        /* \"#utility.yul\":916:932   */\n      add\n        /* \"#utility.yul\":894:946   */\n      tag_51\n      jump\t// in\n    tag_50:\n        /* \"#utility.yul\":971:977   */\n      dup1\n        /* \"#utility.yul\":966:969   */\n      dup5\n        /* \"#utility.yul\":962:978   */\n      add\n        /* \"#utility.yul\":955:978   */\n      swap2\n      pop\n        /* \"#utility.yul\":719:984   */\n      pop\n        /* \"#utility.yul\":611:984   */\n      swap3\n      swap2\n      pop\n      pop\n      jump\t// out\n        /* \"#utility.yul\":990:1355   */\n    tag_52:\n        /* \"#utility.yul\":1132:1135   */\n      0x00\n        /* \"#utility.yul\":1153:1219   */\n      tag_54\n        /* \"#utility.yul\":1217:1218   */\n      0x05\n        /* \"#utility.yul\":1212:1215   */\n      dup4\n        /* \"#utility.yul\":1153:1219   */\n      tag_55\n      jump\t// in\n    tag_54:\n        /* \"#utility.yul\":1146:1219   */\n      swap2\n      pop\n        /* \"#utility.yul\":1228:1321   */\n      tag_56\n        /* \"#utility.yul\":1317:1320   */\n      dup3\n        /* \"#utility.yul\":1228:1321   */\n      tag_57\n      jump\t// in\n    tag_56:\n        /* \"#utility.yul\":1346:1348   */\n      0x20\n        /* \"#utility.yul\":1341:1344   */\n      dup3\n        /* \"#utility.yul\":1337:1349   */\n      add\n        /* \"#utility.yul\":1330:1349   */\n      swap1\n      pop\n        /* \"#utility.yul\":990:1355   */\n      swap2\n      swap1\n      pop\n      jump\t// out\n        /* \"#utility.yul\":1361:1632   */\n    tag_23:\n        /* \"#utility.yul\":1491:1494   */\n      0x00\n        /* \"#utility.yul\":1513:1606   */\n      tag_59\n        /* \"#utility.yul\":1602:1605   */\n      dup3\n        /* \"#utility.yul\":1593:1599   */\n      dup5\n        /* \"#utility.yul\":1513:1606   */\n      tag_44\n      jump\t// in\n    tag_59:\n        /* \"#utility.yul\":1506:1606   */\n      swap2\n      pop\n        /* \"#utility.yul\":1623:1626   */\n      dup2\n        /* \"#utility.yul\":1616:1626   */\n      swap1\n      pop\n        /* \"#utility.yul\":1361:1632   */\n      swap3\n      swap2\n      pop\n      pop\n      jump\t// out\n        /* \"#utility.yul\":1638:1860   */\n    tag_10:\n        /* \"#utility.yul\":1731:1735   */\n      0x00\n        /* \"#utility.yul\":1769:1771   */\n      0x20\n        /* \"#utility.yul\":1758:1767   */\n      dup3\n        /* \"#utility.yul\":1754:1772   */\n      add\n        /* \"#utility.yul\":1746:1772   */\n      swap1\n      pop\n        /* \"#utility.yul\":1782:1853   */\n      tag_61\n        /* \"#utility.yul\":1850:1851   */\n      0x00\n        /* \"#utility.yul\":1839:1848   */\n      dup4\n        /* \"#utility.yul\":1835:1852   */\n      add\n        /* \"#utility.yul\":1826:1832   */\n      dup5\n        /* \"#utility.yul\":1782:1853   */\n      tag_40\n      jump\t// in\n    tag_61:\n        /* \"#utility.yul\":1638:1860   */\n      swap3\n      swap2\n      pop\n      pop\n      jump\t// out\n        /* \"#utility.yul\":1866:2285   */\n    tag_29:\n        /* \"#utility.yul\":2032:2036   */\n      0x00\n        /* \"#utility.yul\":2070:2072   */\n      0x20\n        /* \"#utility.yul\":2059:2068   */\n      dup3\n        /* \"#utility.yul\":2055:2073   */\n      add\n        /* \"#utility.yul\":2047:2073   */\n      swap1\n      pop\n        /* \"#utility.yul\":2119:2128   */\n      dup2\n        /* \"#utility.yul\":2113:2117   */\n      dup2\n        /* \"#utility.yul\":2109:2129   */\n      sub\n        /* \"#utility.yul\":2105:2106   */\n      0x00\n        /* \"#utility.yul\":2094:2103   */\n      dup4\n        /* \"#utility.yul\":2090:2107   */\n      add\n        /* \"#utility.yul\":2083:2130   */\n      mstore\n        /* \"#utility.yul\":2147:2278   */\n      tag_63\n        /* \"#utility.yul\":2273:2277   */\n      dup2\n        /* \"#utility.yul\":2147:2278   */\n      tag_52\n      jump\t// in\n    tag_63:\n        /* \"#utility.yul\":2139:2278   */\n      swap1\n      pop\n        /* \"#utility.yul\":1866:2285   */\n      swap2\n      swap1\n      pop\n      jump\t// out\n        /* \"#utility.yul\":2372:2470   */\n    tag_47:\n        /* \"#utility.yul\":2423:2429   */\n      0x00\n        /* \"#utility.yul\":2457:2462   */\n      dup2\n        /* \"#utility.yul\":2451:2463   */\n      mload\n        /* \"#utility.yul\":2441:2463   */\n      swap1\n      pop\n        /* \"#utility.yul\":2372:2470   */\n      swap2\n      swap1\n      pop\n      jump\t// out\n        /* \"#utility.yul\":2476:2623   */\n    tag_49:\n        /* \"#utility.yul\":2577:2588   */\n      0x00\n        /* \"#utility.yul\":2614:2617   */\n      dup2\n        /* \"#utility.yul\":2599:2617   */\n      swap1\n      pop\n        /* \"#utility.yul\":2476:2623   */\n      swap3\n      swap2\n      pop\n      pop\n      jump\t// out\n        /* \"#utility.yul\":2629:2798   */\n    tag_55:\n        /* \"#utility.yul\":2713:2724   */\n      0x00\n        /* \"#utility.yul\":2747:2753   */\n      dup3\n        /* \"#utility.yul\":2742:2745   */\n      dup3\n        /* \"#utility.yul\":2735:2754   */\n      mstore\n        /* \"#utility.yul\":2787:2791   */\n      0x20\n        /* \"#utility.yul\":2782:2785   */\n      dup3\n        /* \"#utility.yul\":2778:2792   */\n      add\n        /* \"#utility.yul\":2763:2792   */\n      swap1\n      pop\n        /* \"#utility.yul\":2629:2798   */\n      swap3\n      swap2\n      pop\n      pop\n      jump\t// out\n        /* \"#utility.yul\":2804:2900   */\n    tag_43:\n        /* \"#utility.yul\":2841:2848   */\n      0x00\n        /* \"#utility.yul\":2870:2894   */\n      tag_70\n        /* \"#utility.yul\":2888:2893   */\n      dup3\n        /* \"#utility.yul\":2870:2894   */\n      tag_71\n      jump\t// in\n    tag_70:\n        /* \"#utility.yul\":2859:2894   */\n      swap1\n      pop\n        /* \"#utility.yul\":2804:2900   */\n      swap2\n      swap1\n      pop\n      jump\t// out\n        /* \"#utility.yul\":2906:3032   */\n    tag_71:\n        /* \"#utility.yul\":2943:2950   */\n      0x00\n        /* \"#utility.yul\":2983:3025   */\n      0xffffffffffffffffffffffffffffffffffffffff\n        /* \"#utility.yul\":2976:2981   */\n      dup3\n        /* \"#utility.yul\":2972:3026   */\n      and\n        /* \"#utility.yul\":2961:3026   */\n      swap1\n      pop\n        /* \"#utility.yul\":2906:3032   */\n      swap2\n      swap1\n      pop\n      jump\t// out\n        /* \"#utility.yul\":3038:3345   */\n    tag_51:\n        /* \"#utility.yul\":3106:3107   */\n      0x00\n        /* \"#utility.yul\":3116:3229   */\n    tag_74:\n        /* \"#utility.yul\":3130:3136   */\n      dup4\n        /* \"#utility.yul\":3127:3128   */\n      dup2\n        /* \"#utility.yul\":3124:3137   */\n      lt\n        /* \"#utility.yul\":3116:3229   */\n      iszero\n      tag_76\n      jumpi\n        /* \"#utility.yul\":3215:3216   */\n      dup1\n        /* \"#utility.yul\":3210:3213   */\n      dup3\n        /* \"#utility.yul\":3206:3217   */\n      add\n        /* \"#utility.yul\":3200:3218   */\n      mload\n        /* \"#utility.yul\":3196:3197   */\n      dup2\n        /* \"#utility.yul\":3191:3194   */\n      dup5\n        /* \"#utility.yul\":3187:3198   */\n      add\n        /* \"#utility.yul\":3180:3219   */\n      mstore\n        /* \"#utility.yul\":3152:3154   */\n      0x20\n        /* \"#utility.yul\":3149:3150   */\n      dup2\n        /* \"#utility.yul\":3145:3155   */\n      add\n        /* \"#utility.yul\":3140:3155   */\n      swap1\n      pop\n        /* \"#utility.yul\":3116:3229   */\n      jump(tag_74)\n    tag_76:\n        /* \"#utility.yul\":3247:3253   */\n      dup4\n        /* \"#utility.yul\":3244:3245   */\n      dup2\n        /* \"#utility.yul\":3241:3254   */\n      gt\n        /* \"#utility.yul\":3238:3339   */\n      iszero\n      tag_77\n      jumpi\n        /* \"#utility.yul\":3327:3328   */\n      0x00\n        /* \"#utility.yul\":3318:3324   */\n      dup5\n        /* \"#utility.yul\":3313:3316   */\n      dup5\n        /* \"#utility.yul\":3309:3325   */\n      add\n        /* \"#utility.yul\":3302:3329   */\n      mstore\n        /* \"#utility.yul\":3238:3339   */\n    tag_77:\n        /* \"#utility.yul\":3087:3345   */\n      pop\n        /* \"#utility.yul\":3038:3345   */\n      pop\n      pop\n      pop\n      jump\t// out\n        /* \"#utility.yul\":3474:3591   */\n    tag_38:\n        /* \"#utility.yul\":3583:3584   */\n      0x00\n        /* \"#utility.yul\":3580:3581   */\n      dup1\n        /* \"#utility.yul\":3573:3585   */\n      revert\n        /* \"#utility.yul\":3597:3752   */\n    tag_57:\n        /* \"#utility.yul\":3737:3744   */\n      0x4572726f72000000000000000000000000000000000000000000000000000000\n        /* \"#utility.yul\":3733:3734   */\n      0x00\n        /* \"#utility.yul\":3725:3731   */\n      dup3\n        /* \"#utility.yul\":3721:3735   */\n      add\n        /* \"#utility.yul\":3714:3745   */\n      mstore\n        /* \"#utility.yul\":3597:3752   */\n      pop\n      jump\t// out\n        /* \"#utility.yul\":3758:3880   */\n    tag_34:\n        /* \"#utility.yul\":3831:3855   */\n      tag_83\n        /* \"#utility.yul\":3849:3854   */\n      dup2\n        /* \"#utility.yul\":3831:3855   */\n      tag_43\n      jump\t// in\n    tag_83:\n        /* \"#utility.yul\":3824:3829   */\n      dup2\n        /* \"#utility.yul\":3821:3856   */\n      eq\n        /* \"#utility.yul\":3811:3874   */\n      tag_84\n      jumpi\n        /* \"#utility.yul\":3870:3871   */\n      0x00\n        /* \"#utility.yul\":3867:3868   */\n      dup1\n        /* \"#utility.yul\":3860:3872   */\n      revert\n        /* \"#utility.yul\":3811:3874   */\n    tag_84:\n        /* \"#utility.yul\":3758:3880   */\n      pop\n      jump\t// out\n\n    auxdata: 0xa2646970667358221220eff6dc488f4c57064a82c5d8dbe3fb011a3d78b03e28d9629ba6cd9605cc633664736f6c63430008070033\n}\n",
				"bytecode": {
					"linkReferences": {},
					"object": "608060405234801561001057600080fd5b50610466806100206000396000f3fe608060405234801561001057600080fd5b506004361061004c5760003560e01c80631bc1e19a14610051578063547125241461006f578063573255f41461008d578063b640681a146100ab575b600080fd5b6100596100c7565b6040516100669190610324565b60405180910390f35b6100776100ed565b6040516100849190610324565b60405180910390f35b610095610111565b6040516100a29190610324565b60405180910390f35b6100c560048036038101906100c0919061027d565b610137565b005b600160009054906101000a900473ffffffffffffffffffffffffffffffffffffffff1681565b60008054906101000a900473ffffffffffffffffffffffffffffffffffffffff1681565b600260009054906101000a900473ffffffffffffffffffffffffffffffffffffffff1681565b60008173ffffffffffffffffffffffffffffffffffffffff166040516024016040516020818303038152906040527fb688a363000000000000000000000000000000000000000000000000000000007bffffffffffffffffffffffffffffffffffffffffffffffffffffffff19166020820180517bffffffffffffffffffffffffffffffffffffffffffffffffffffffff83818316178352505050506040516101e0919061030d565b600060405180830381855af49150503d806000811461021b576040519150601f19603f3d011682016040523d82523d6000602084013e610220565b606091505b5050905080610264576040517f08c379a000000000000000000000000000000000000000000000000000000000815260040161025b9061033f565b60405180910390fd5b5050565b60008135905061027781610419565b92915050565b600060208284031215610293576102926103eb565b5b60006102a184828501610268565b91505092915050565b6102b381610386565b82525050565b60006102c48261035f565b6102ce818561036a565b93506102de8185602086016103b8565b80840191505092915050565b60006102f7600583610375565b9150610302826103f0565b602082019050919050565b600061031982846102b9565b915081905092915050565b600060208201905061033960008301846102aa565b92915050565b60006020820190508181036000830152610358816102ea565b9050919050565b600081519050919050565b600081905092915050565b600082825260208201905092915050565b600061039182610398565b9050919050565b600073ffffffffffffffffffffffffffffffffffffffff82169050919050565b60005b838110156103d65780820151818401526020810190506103bb565b838111156103e5576000848401525b50505050565b600080fd5b7f4572726f72000000000000000000000000000000000000000000000000000000600082015250565b61042281610386565b811461042d57600080fd5b5056fea2646970667358221220eff6dc488f4c57064a82c5d8dbe3fb011a3d78b03e28d9629ba6cd9605cc633664736f6c63430008070033",
					"opcodes": "PUSH1 0x80 PUSH1 0x40 MSTORE CALLVALUE DUP1 ISZERO PUSH2 0x10 JUMPI PUSH1 0x0 DUP1 REVERT JUMPDEST POP PUSH2 0x466 DUP1 PUSH2 0x20 PUSH1 0x0 CODECOPY PUSH1 0x0 RETURN INVALID PUSH1 0x80 PUSH1 0x40 MSTORE CALLVALUE DUP1 ISZERO PUSH2 0x10 JUMPI PUSH1 0x0 DUP1 REVERT JUMPDEST POP PUSH1 0x4 CALLDATASIZE LT PUSH2 0x4C JUMPI PUSH1 0x0 CALLDATALOAD PUSH1 0xE0 SHR DUP1 PUSH4 0x1BC1E19A EQ PUSH2 0x51 JUMPI DUP1 PUSH4 0x54712524 EQ PUSH2 0x6F JUMPI DUP1 PUSH4 0x573255F4 EQ PUSH2 0x8D JUMPI DUP1 PUSH4 0xB640681A EQ PUSH2 0xAB JUMPI JUMPDEST PUSH1 0x0 DUP1 REVERT JUMPDEST PUSH2 0x59 PUSH2 0xC7 JUMP JUMPDEST PUSH1 0x40 MLOAD PUSH2 0x66 SWAP2 SWAP1 PUSH2 0x324 JUMP JUMPDEST PUSH1 0x40 MLOAD DUP1 SWAP2 SUB SWAP1 RETURN JUMPDEST PUSH2 0x77 PUSH2 0xED JUMP JUMPDEST PUSH1 0x40 MLOAD PUSH2 0x84 SWAP2 SWAP1 PUSH2 0x324 JUMP JUMPDEST PUSH1 0x40 MLOAD DUP1 SWAP2 SUB SWAP1 RETURN JUMPDEST PUSH2 0x95 PUSH2 0x111 JUMP JUMPDEST PUSH1 0x40 MLOAD PUSH2 0xA2 SWAP2 SWAP1 PUSH2 0x324 JUMP JUMPDEST PUSH1 0x40 MLOAD DUP1 SWAP2 SUB SWAP1 RETURN JUMPDEST PUSH2 0xC5 PUSH1 0x4 DUP1 CALLDATASIZE SUB DUP2 ADD SWAP1 PUSH2 0xC0 SWAP2 SWAP1 PUSH2 0x27D JUMP JUMPDEST PUSH2 0x137 JUMP JUMPDEST STOP JUMPDEST PUSH1 0x1 PUSH1 0x0 SWAP1 SLOAD SWAP1 PUSH2 0x100 EXP SWAP1 DIV PUSH20 0xFFFFFFFFFFFFFFFFFFFFFFFFFFFFFFFFFFFFFFFF AND DUP2 JUMP JUMPDEST PUSH1 0x0 DUP1 SLOAD SWAP1 PUSH2 0x100 EXP SWAP1 DIV PUSH20 0xFFFFFFFFFFFFFFFFFFFFFFFFFFFFFFFFFFFFFFFF AND DUP2 JUMP JUMPDEST PUSH1 0x2 PUSH1 0x0 SWAP1 SLOAD SWAP1 PUSH2 0x100 EXP SWAP1 DIV PUSH20 0xFFFFFFFFFFFFFFFFFFFFFFFFFFFFFFFFFFFFFFFF AND DUP2 JUMP JUMPDEST PUSH1 0x0 DUP2 PUSH20 0xFFFFFFFFFFFFFFFFFFFFFFFFFFFFFFFFFFFFFFFF AND PUSH1 0x40 MLOAD PUSH1 0x24 ADD PUSH1 0x40 MLOAD PUSH1 0x20 DUP2 DUP4 SUB SUB DUP2 MSTORE SWAP1 PUSH1 0x40 MSTORE PUSH32 0xB688A36300000000000000000000000000000000000000000000000000000000 PUSH28 0xFFFFFFFFFFFFFFFFFFFFFFFFFFFFFFFFFFFFFFFFFFFFFFFFFFFFFFFF NOT AND PUSH1 0x20 DUP3 ADD DUP1 MLOAD PUSH28 0xFFFFFFFFFFFFFFFFFFFFFFFFFFFFFFFFFFFFFFFFFFFFFFFFFFFFFFFF DUP4 DUP2 DUP4 AND OR DUP4 MSTORE POP POP POP POP PUSH1 0x40 MLOAD PUSH2 0x1E0 SWAP2 SWAP1 PUSH2 0x30D JUMP JUMPDEST PUSH1 0x0 PUSH1 0x40 MLOAD DUP1 DUP4 SUB DUP2 DUP6 GAS DELEGATECALL SWAP2 POP POP RETURNDATASIZE DUP1 PUSH1 0x0 DUP2 EQ PUSH2 0x21B JUMPI PUSH1 0x40 MLOAD SWAP2 POP PUSH1 0x1F NOT PUSH1 0x3F RETURNDATASIZE ADD AND DUP3 ADD PUSH1 0x40 MSTORE RETURNDATASIZE DUP3 MSTORE RETURNDATASIZE PUSH1 0x0 PUSH1 0x20 DUP5 ADD RETURNDATACOPY PUSH2 0x220 JUMP JUMPDEST PUSH1 0x60 SWAP2 POP JUMPDEST POP POP SWAP1 POP DUP1 PUSH2 0x264 JUMPI PUSH1 0x40 MLOAD PUSH32 0x8C379A000000000000000000000000000000000000000000000000000000000 DUP2 MSTORE PUSH1 0x4 ADD PUSH2 0x25B SWAP1 PUSH2 0x33F JUMP JUMPDEST PUSH1 0x40 MLOAD DUP1 SWAP2 SUB SWAP1 REVERT JUMPDEST POP POP JUMP JUMPDEST PUSH1 0x0 DUP2 CALLDATALOAD SWAP1 POP PUSH2 0x277 DUP2 PUSH2 0x419 JUMP JUMPDEST SWAP3 SWAP2 POP POP JUMP JUMPDEST PUSH1 0x0 PUSH1 0x20 DUP3 DUP5 SUB SLT ISZERO PUSH2 0x293 JUMPI PUSH2 0x292 PUSH2 0x3EB JUMP JUMPDEST JUMPDEST PUSH1 0x0 PUSH2 0x2A1 DUP5 DUP3 DUP6 ADD PUSH2 0x268 JUMP JUMPDEST SWAP2 POP POP SWAP3 SWAP2 POP POP JUMP JUMPDEST PUSH2 0x2B3 DUP2 PUSH2 0x386 JUMP JUMPDEST DUP3 MSTORE POP POP JUMP JUMPDEST PUSH1 0x0 PUSH2 0x2C4 DUP3 PUSH2 0x35F JUMP JUMPDEST PUSH2 0x2CE DUP2 DUP6 PUSH2 0x36A JUMP JUMPDEST SWAP4 POP PUSH2 0x2DE DUP2 DUP6 PUSH1 0x20 DUP7 ADD PUSH2 0x3B8 JUMP JUMPDEST DUP1 DUP5 ADD SWAP2 POP POP SWAP3 SWAP2 POP POP JUMP JUMPDEST PUSH1 0x0 PUSH2 0x2F7 PUSH1 0x5 DUP4 PUSH2 0x375 JUMP JUMPDEST SWAP2 POP PUSH2 0x302 DUP3 PUSH2 0x3F0 JUMP JUMPDEST PUSH1 0x20 DUP3 ADD SWAP1 POP SWAP2 SWAP1 POP JUMP JUMPDEST PUSH1 0x0 PUSH2 0x319 DUP3 DUP5 PUSH2 0x2B9 JUMP JUMPDEST SWAP2 POP DUP2 SWAP1 POP SWAP3 SWAP2 POP POP JUMP JUMPDEST PUSH1 0x0 PUSH1 0x20 DUP3 ADD SWAP1 POP PUSH2 0x339 PUSH1 0x0 DUP4 ADD DUP5 PUSH2 0x2AA JUMP JUMPDEST SWAP3 SWAP2 POP POP JUMP JUMPDEST PUSH1 0x0 PUSH1 0x20 DUP3 ADD SWAP1 POP DUP2 DUP2 SUB PUSH1 0x0 DUP4 ADD MSTORE PUSH2 0x358 DUP2 PUSH2 0x2EA JUMP JUMPDEST SWAP1 POP SWAP2 SWAP1 POP JUMP JUMPDEST PUSH1 0x0 DUP2 MLOAD SWAP1 POP SWAP2 SWAP1 POP JUMP JUMPDEST PUSH1 0x0 DUP2 SWAP1 POP SWAP3 SWAP2 POP POP JUMP JUMPDEST PUSH1 0x0 DUP3 DUP3 MSTORE PUSH1 0x20 DUP3 ADD SWAP1 POP SWAP3 SWAP2 POP POP JUMP JUMPDEST PUSH1 0x0 PUSH2 0x391 DUP3 PUSH2 0x398 JUMP JUMPDEST SWAP1 POP SWAP2 SWAP1 POP JUMP JUMPDEST PUSH1 0x0 PUSH20 0xFFFFFFFFFFFFFFFFFFFFFFFFFFFFFFFFFFFFFFFF DUP3 AND SWAP1 POP SWAP2 SWAP1 POP JUMP JUMPDEST PUSH1 0x0 JUMPDEST DUP4 DUP2 LT ISZERO PUSH2 0x3D6 JUMPI DUP1 DUP3 ADD MLOAD DUP2 DUP5 ADD MSTORE PUSH1 0x20 DUP2 ADD SWAP1 POP PUSH2 0x3BB JUMP JUMPDEST DUP4 DUP2 GT ISZERO PUSH2 0x3E5 JUMPI PUSH1 0x0 DUP5 DUP5 ADD MSTORE JUMPDEST POP POP POP POP JUMP JUMPDEST PUSH1 0x0 DUP1 REVERT JUMPDEST PUSH32 0x4572726F72000000000000000000000000000000000000000000000000000000 PUSH1 0x0 DUP3 ADD MSTORE POP JUMP JUMPDEST PUSH2 0x422 DUP2 PUSH2 0x386 JUMP JUMPDEST DUP2 EQ PUSH2 0x42D JUMPI PUSH1 0x0 DUP1 REVERT JUMPDEST POP JUMP INVALID LOG2 PUSH5 0x6970667358 0x22 SLT KECCAK256 0xEF 0xF6 0xDC BASEFEE DUP16 0x4C JUMPI MOD 0x4A DUP3 0xC5 0xD8 0xDB 0xE3 0xFB ADD BYTE RETURNDATASIZE PUSH25 0xB03E28D9629BA6CD9605CC633664736F6C6343000807003300 "
				},
				"gasEstimates": {
					"creation": {
						"codeDepositCost": "225200",
						"executionCost": "269",
						"totalCost": "225469"
					},
					"external": {
						"firstPlayer()": "2511",
						"judge()": "2536",
						"proxyJoin(address)": "infinite",
						"secondPlayer()": "2492"
					}
				},
				"methodIdentifiers": {
					"firstPlayer()": "54712524",
					"judge()": "573255f4",
					"proxyJoin(address)": "b640681a",
					"secondPlayer()": "1bc1e19a"
				}
			},
			"storageLayout": {
				"storage": [
					{
						"astId": 3,
						"contract": "contracts/ProxyContract.sol:ProxyContract",
						"label": "firstPlayer",
						"offset": 0,
						"slot": "0",
						"type": "t_address"
					},
					{
						"astId": 5,
						"contract": "contracts/ProxyContract.sol:ProxyContract",
						"label": "secondPlayer",
						"offset": 0,
						"slot": "1",
						"type": "t_address"
					},
					{
						"astId": 7,
						"contract": "contracts/ProxyContract.sol:ProxyContract",
						"label": "judge",
						"offset": 0,
						"slot": "2",
						"type": "t_address"
					}
				],
				"types": {
					"t_address": {
						"encoding": "inplace",
						"label": "address",
						"numberOfBytes": "20"
					}
				}
			},
			"userdoc": {
				"kind": "user",
				"methods": {},
				"version": 1
			}
		}
	}
}